:020000040801F1
:100000003DB8F396000000010004000078020100F2
:1000100000000000000000000000000000000000E0
:1000200000000000000000000000000000000000D0
:1000300000000000000000000000000000000000C0
:1000400000000000000000000000000000000000B0
:10040000D02D002005320108F12E0108F13101083C
:10041000F1310108F1310108F1310108F131010830
:10042000000000000000000000000000E5330108AB
:10043000F131010800000000A5330108F96A010844
:100440002D3501082D3501082D3501082D35010800
:100450002D3501082D3501082D3501082D350108F0
:100460002D3501082D3501082D3501082D350108E0
:100470002D3501082D3501082D3501082D350108D0
:100480002D3501082D3501082D3501082D350108C0
:100490002D3501082D3501082D3501082D350108B0
:1004A0002D3501082D3501082D3501082D350108A0
:1004B0002D3501082D3501082D3501082D35010890
:1004C0002D3501082D3501082D3501082D35010880
:1004D0002D3501082D3501082D3501082D35010870
:1004E0002D3501082D3501082D3501082D35010860
:1004F0002D3501082D3501082D3501082D35010850
:100500002D3501082D3501082D3501082D3501083F
:100510002D3501082D3501082D3501082D3501082F
:100520002D3501082D3501082D3501082D3501081F
:100530002D3501082D3501082D3501082D3501080F
:100540002D3501082D3501082D3501082D350108FF
:100550002D3501082D3501082D3501082D350108EF
:100560002D3501082D3501082D3501082D350108DF
:100570002D3501082D3501082D3501082D350108CF
:100580002D3501082D3501082D3501082D350108BF
:100590002D3501082D3501082D3501082D350108AF
:1005A0002D3501082D3501082D3501082D3501089F
:1005B0002D3501082D3501082D3501082D3501088F
:1005C0002D3501082D3501082D3501082D3501087F
:1005D0002D3501082D3501082D3501082D3501086F
:1005E0002D3501082D3501082D3501082D3501085F
:1005F0002D3501082D3501082D3501082D3501084F
:100600002D3501082D3501082D3501082D3501083E
:100610002D3501082D3501082D3501082D3501082E
:100620002D3501082D3501082D3501082D3501081E
:100630002D3501082D3501082D3501082D3501080E
:100640002D3501082D3501082D350108FFFFFFFF6D
:100650007BB972B90029BEBF00204FF0004106E00F
:1006600008BF00281CBF6FF000414FF0FF3000F0C2
:1006700057B8ADF1080C6DE904CE002909DB002B59
:100680001ADB00F04FF8DDF804E0DDE9022304B0E6
:100690007047404261EB4101002B1BDB00F042F848
:1006A000DDF804E0DDE9022304B0404261EB4101E2
:1006B000524263EB43037047524263EB430300F043
:1006C00031F8DDF804E0DDE9022304B0404261EBDB
:1006D00041017047524263EB430300F023F8DDF819
:1006E00004E0DDE9022304B0524263EB43037047A8
:1006F00053B94AB9002908BF00281CBF4FF0FF3189
:100700004FF0FF3000F00CB8ADF1080C6DE904CEED
:1007100000F008F8DDF804E0DDE9022304B07047DA
:10072000704700BF2DE9F04786468C460846089E74
:10073000154674461946002B40F0C1808542B2FA36
:1007400082F245D94AB1C2F1200300FA02FC954079
:1007500094402EFA03F343EA0C0C4FEA154EA8B26C
:10076000230CBCFBFEF80EFB18CC08FB00F943EA97
:100770000C43994528D9EB1808F1FF3704D2994565
:1007800002D9A8F102072B44A3EB0903A4B2B3FBDF
:10079000FEFC0EFB1C330CFB00F044EA0344A042B9
:1007A00014D92C190CF1FF3304D2A04202D9ACF1B8
:1007B00002032C44241A43EA07401EB1D44000230C
:1007C00034607360BDE8F0874746DDE76346F1E7D4
:1007D00092BB431B01214FEA154EAFB2200CB3FB75
:1007E000FEFC0EFB1C330CFB07F840EA0343984564
:1007F00061D9EB180CF1FF3004D2984502D9ACF165
:1008000002002B44A3EB0803A4B2B3FBFEFC0EFBD7
:100810001C330CFB07F744EA0344A7424DD92C19BB
:100820000CF1FF3304D2A74202D9ACF102032C44ED
:10083000E41B43EA0040C0E7C2F120039540944026
:1008400020FA03F12EFA03F34FEA154E9040AFB2AF
:100850000343B1FBFEFC0EFB1C10190C0CFB07F84C
:1008600041EA0041884522D969180CF1FF3004D2D1
:10087000884502D9ACF102002944A1EB08019BB2E2
:10088000B1FBFEFC0EFB1C110CFB07F743EA014316
:100890009F420ED9EB180CF1FF3104D29F4202D9CE
:1008A000ACF102012B44DB1B41EA004193E76046B7
:1008B000E3E76146F7E76046A4E76346B8E78342AB
:1008C00006D916B9002108467CE7C6E900E0F9E739
:1008D000B3FA83F78FB9834201D3724508D8BEEBD0
:1008E000020460EB030301209C461EB9002169E766
:1008F0003846FAE7C6E9004CF8E7C7F1200CBB40E0
:100900000EFA07F522FA0CF42EFA0CF1BA401C4349
:1009100020FA0CF3B8404FEA144901431FFA84FE51
:10092000B3FBF9F809FB18300B0C08FB0EFA43EA8D
:1009300000439A4540D9E31808F1FF3004D29A45A4
:1009400002D9A8F102002344A3EB0A0389B2B3FB46
:10095000F9F809FB183308FB0EFE41EA03418E4506
:100960002CD9611808F1FF3304D28E4502D9A8F1C1
:100970000203214443EA0040A1EB0E01A0FB0298D0
:100980004145CE46434602D306D14D4504D20138F7
:10099000B9EB020E68EB0403002EA7D0B5EB0E02F4
:1009A00061EB030101FA0CFC22FA07F3F9404CEA6F
:1009B0000303C6E9003199E74046C5E74346D9E756
:1009C00010F8012B11F8013B012A28BF9A42F7D0F9
:1009D000D01A7047034611F8012B03F8012B002AA7
:1009E000F9D17047034613F8012B002AFBD1181ADE
:1009F00001387047000000002DE9F04704468846A2
:100A000017468AB00CF08AFF0A220023FFF770FE17
:100A1000B8F1010F06460D4608D1CDE900012A4A7A
:100A20000821204609F036F9002012E07F682748A7
:100A30003946FFF7C5FF78B139462548FFF7C0FFB3
:100A400050B120463B460121224A09F023F96FF0BC
:100A500004000AB0BDE8F087304619A3D3E90023AB
:100A60002946FFF7F5FD06460D46104619461A4A77
:100A70000023FFF7EDFD80460F46104619464EF65F
:100A800060220023FFF7E4FD82468946104619469E
:100A90004FF47A720023FFF7DBFDCDE904A9CDE91D
:100AA0000601CDE9082308212046CDE90287CDE9DA
:100AB00000650A4A09F0EEF8B6E700BFAFF3008020
:100AC000005C26050000000056F0010867F00108F0
:100AD0006AF0010873F0010880EE36008AF0010820
:100AE00008B50349034808F03FFD002008BD00BFDA
:100AF0000CEF01081AEF0108014B1B68184700BFF3
:100B000030000020014B1860704700BF300000200B
:100B100030B585B004460D461022002168460DF020
:100B20008CF902238DF80230044B2A462146684690
:100B3000019308F0DDF805B030BD00BFF90A0108E7
:100B400080B505460E461746984607F0E9FC034671
:100B50000DF084F90446DFF81890424649F8003059
:100B600039463046A84754F8090002F0C9FB00BFD7
:100B700008000000044608B5EFF31183102383F347
:100B80001288BFF36F8F0BF09DFC204602F06EFBC6
:100B9000024808F0E9FC09F00CFFFCE744EF01080B
:100BA0002DE9F043079D15B91560002012E00324DC
:100BB000B5FBF4F404EB4407BD4218BF0134B4F1B3
:100BC000804F09D2A40001348C4200D838B96FF0AC
:100BD0000B001460BDE8F0834FF0FF34F7E70446E4
:100BE0000021DFF8B4E0B94203F1030C04F104067C
:100BF0002BD3A942274623D201F1010CAC451F7823
:100C000028BF002324494FEAA70E38BF5B7811F8AC
:100C10000EE0AC4584F800E001EB131E2EBF3D232F
:100C20009B0003F03C034FEA071738BFCB5C07F08B
:100C300030071EF80770A3703D2367703746E370D6
:100C40000023381A10603B70AFE71CF8034C1CF807
:100C5000023C4FEAA4091EF8099024011CF8018CFB
:100C600004F0300406F8049C0EEB131919F8044044
:100C70009B0006F8034C03F03C030EEB9814E35C76
:100C800008F03F0806F8023C1EF80830344606F823
:100C9000013C03316346A6E7EDEF01082DE9F0437F
:100CA00000273C463D46DDF81CE0DFF8288175450D
:100CB0001FD3E4BB00201460BDE8F0830136764505
:100CC00033D013F806C0BCF1200FF7D0AEEB060905
:100CD000B9F1010FA6EB05050DD0BCF10D0F0AD13E
:100CE00003EB060999F80190B9F10A0F6ED1751C52
:100CF000DDE72E46E3E7BCF10A0FF8D02DB9BCF1D1
:100D00003D0F05D10137022F0DD96FF01500D3E744
:100D10001CF0800FF9D118F80C507F2DF5D03F2D25
:100D200001D8002FF1D10134E1E73546C1E74FF09A
:100D3000060C04F00706E4080CFB06F60CFB04F4B2
:100D40000736E41B04EBD60470B18C420CD80027A4
:100D5000014603263C46DFF87CE0DFF87C801D443A
:100D60009D4205D10C1AA5E76FF00B001460A3E7B4
:100D700013F8019BA9F10A0C5FFA8CFCBCF1160F69
:100D800004D848FA0CFC1CF0010FE9D01EF809C089
:100D90000134BCF1400F08BF013E0CF03F0C042CA5
:100DA0004CEA8717DCD17EB13C0C012E0C7002D1CD
:100DB00001310024D4E7022E4FEA17244C7016BFED
:100DC0008F7002310331F4E73446C9E7002DA2D019
:100DD0009BE700BF6DEF0108F6FFBFFF034A00204D
:100DE000536823F002035360704700BF0040024481
:100DF000094B00201A6822F004021A601A6842F0B7
:100E000001021A60054B064A1A60064AD36A43F08B
:100E10000103D362704700BF00040340B00100200B
:100E20000048E80100080244014B036001207047BC
:100E300034E5010870B5114B0D461C68DCB1104B50
:100E4000196800238B4202DB6FF0010070BD22465F
:100E500012F8106B864202D014460133F2E7E068C4
:100E600010B96FF01200F1E70CF03DFA0028F8D04D
:100E700000202C60EAE76FF00C00E7E73400002068
:100E800044E501082DE9F3470D46DDE90A7891466E
:100E90001E46044620B96FF00D0002B0BDE8F08791
:100EA0000029F8D0002AF6D00093002301938B6824
:100EB0000846DB68984702688246B6FBF2F302FBFD
:100EC00013632262002BE6D16A46284612490AF0D3
:100ED00083FB019A002ADED007EB08039A42DAD39B
:100EE000216AB7FBF1F301FB1373002BD3D1C4E9E3
:100EF0000096E5602361A3606761B8F1000F01D13E
:100F0000A2EB07080C9BC4F81880E3619AF805303F
:100F1000002084F82430C0E7A597010808B508210F
:100F2000024B034A08F0B6FE002008BD3DF0010860
:100F300043F0010810B5044605F086FE082103467B
:100F4000074A204608F0A6FE2046064A082108F077
:100F5000A1FE2146044807F09FFB002010BD00BF02
:100F6000D8F00108F7F001086D0F010870B58EB0D8
:100F700004460D46D0F89C600CF072FB02460CF063
:100F80006DFF254B1958254B2846002A18BF1346DC
:100F9000234ACDE90043234B8C4218BF1346082156
:100FA000214A08F077FED4E90A23CDE9022394F917
:100FB0000E3028460093237B08211C4A08F06AFE65
:100FC00006A92022204606F021FF626E0346009209
:100FD00008212846164A08F05DFE204605A90CF0B7
:100FE0004FFB034630B108212846124A08F052FE52
:100FF0000EB070BD6423059A2846B11A4B43B3FB6B
:10100000F6F3CDE90021CDE90263082133460A4A0F
:1010100008F040FEECE700BF0800000001F1010805
:1010200068F901081304020804F1010810F101082D
:101030003CF1010853F1010880F10108F0B50025E9
:10104000044693B029460AAF1C220BA80CF0F5FE0B
:10105000134E1A22202138460CF0EFFE214611488B
:1010600007F01AFB09AA4FF4006130460CF0FCFAB5
:1010700064224FF400630999CDE90057C1F500607F
:101080004243D20ACDE90403CDE90231204606925B
:1010900033460821044A08F0FDFD284613B0F0BD90
:1010A0009020002009110108B7F1010810B504468D
:1010B00005F0E8FD08210346024A204608F0EAFD53
:1010C000002010BD00F2010837B513460022054686
:1010D00001920A21586801AA01F094FA019C4CB9C6
:1010E0000A2120EAE07080FB010107F0FBF92046AD
:1010F00003B030BD234601212846024A08F0CAFD4C
:10110000019CF4E716F20108F0B504460D46D0F84C
:101110009C6089B007A90CF0B3FA034630B10821EE
:1011200028460F4A08F0B6FD09B0F0BD20460CF085
:1011300097FA6423079A0B4FB11A4B43002818BF44
:101140000746B3FBF6F3CDE90221CDE9046308219C
:1011500023462846CDE90076034A08F09BFDE3E7E5
:1011600053F1010801F1010836F201082DE9F043BD
:1011700087B00546684606F003FA1423009E08214E
:1011800003FB0066164A284608F084FD154F009CB4
:10119000DFF85480DFF85490B44203D3002007B046
:1011A000BDE8F08323680BB11A7832B923463A467A
:1011B000142101A807F094FC01AB424608212846FF
:1011C00008F068FD20460CF08EF8094B0821002835
:1011D00008BF4B46074A284608F05CFD1434DBE79D
:1011E0008BF3010895F301089AF3010882F30108D3
:1011F0007CF30108F0F901088B1E022B2DE9F04168
:1012000007468846144637D810220021606807F048
:1012100009FDB8F1020F064607D120230821384600
:10122000244A08F037FD336816E00A220021A0683E
:1012300007F0F8FCC5B22B46082138461D4A08F0D5
:1012400029FDB8F1040F1AD0102D0DD0202DEAD0B1
:10125000082D0CD13378DBB208213846164A08F045
:1012600019FD0020BDE8F08133889BB2F4E7082126
:101270003846124A08F00EFD6FF01500F2E7102212
:101280000021E06807F0CEFC0821034604460C4A22
:10129000384608F0FFFC102D06D0202D07D0082D71
:1012A000E5D1E4B23470DCE7A4B23480D9E734602D
:1012B000D7E700BFD3F30108FEF30108E8F3010804
:1012C0000FF401082DE9F04F91464FF0FF35012250
:1012D000574B85B0074688461A60202602F070FBFF
:1012E0002C46DFF850A149465246404602F08CFB9E
:1012F000411C07D16A1C52D14F4A0121384608F0DF
:10130000C9FC1DE0732820D0772833D0612817D17D
:10131000DFF828B110220021DBF8000007F082FC82
:1013200005460028DFD10CF099FD454B1B58162BC4
:10133000D9D1DBF80030434A0121384608F0AAFC35
:101340006FF0150005B0BDE8F08F0022DFF8ECB0BB
:101350001146DBF8000007F065FC04460028C2D106
:101360000CF07CFD364B1B58162BBCD1DBF8003043
:10137000354AE1E70022DFF8C4B01146DBF800008F
:1013800007F050FC06460028ADD10CF067FD2C4B51
:101390001B58162BA7D1DBF800302C4ACCE7631C76
:1013A00001D12B4AA9E75FFA86F8C6F3C406002CE0
:1013B0003CD06B4629461A46A6EB050C0CE0B8F16A
:1013C000100F1DD0B8F1200F20D0B8F1080F2AD18E
:1013D0000878187031443344A64203D80CEB01005E
:1013E0001028ECD9102CA14628BF4FF0100929462F
:1013F0004B46384600F0D2FF1035A4EB0904D6E77F
:10140000088880B21870000A5870E3E708684FEA4D
:10141000102E187083F801E04FEA104E000E83F88A
:1014200002E0D870D6E708210A4A67E7204689E734
:10143000A40000205DF4010864F40108440C0020BD
:101440000C00000023F4010836F4010849F40108F7
:1014500081F40108E8F3010870B5104E04460D460A
:10146000337881B12BB10121BDE870400C4A08F0FE
:1014700011BC01233370082120460A4A08F00AFCF7
:101480000123337004E083F001033370002BF2D1A9
:1014900029462046BDE8704008F03EBC6810002098
:1014A0009BF40108D6F4010870B504463C48037863
:1014B000182B02D10B78112B31D00B46013A8D1825
:1014C000AB4225D18B5C0A780370A2F13003092B63
:1014D000344C04D922F02003413B052B04D8236867
:1014E0003149CA54013323602368022B34D11022BE
:1014F00000212D4807F096FB2C4A136803F8010BD6
:1015000013602B4A1368013313600023236023E028
:1015100013F8016B182ED3D11E78112ED0D1244D83
:1015200008212B682046234A08F0B4FB20460021FE
:10153000FFF792FF204B187870B9204A2B6811688A
:10154000042B0ADC08B111602B6013F003010BD1EE
:10155000126813681BBA136070BD0868043B00BAB8
:1015600041F8040B0120EBE75B4203F0030358BF93
:101570005942022904D1126813885BBA9BB2EAE788
:101580000329E9D1106802681104C2F3074301F48A
:101590007F010B4302F47F4213430360DCE700BF8B
:1015A00069100020E00800206B100020EC080020EB
:1015B000E408002000F501086A100020E808002077
:1015C0002DE9F84F0023064615460C462949DFF859
:1015D000A8800B602949DFF8A890DFF8A8B088F848
:1015E00000300B60012C2F4655F804AF1ED90222A3
:1015F000494650460CF06CFB80B99AF80220003A3C
:1016000018BF01229244504602221F490CF060FB91
:1016100030B9012388F80030013CE3E70022F1E70C
:1016200049465046FFF7CCF9A8B90437002278683C
:10163000114607F081FA0022144B114618607868B1
:1016400007F07AFA124B134918603046FFF704FF8F
:101650000020BDE8F88F9AF800202D2AE6D19AF8EC
:101660000120002AE2D053465A460821304608F0AD
:1016700011FBD1E7E00800206A100020E4080020F8
:101680001AF5010820F501081DF50108EC080020F5
:10169000E8080020A914010813B50A480BF023FE3E
:1016A00068B1002403F0F0F9074A012312680549E4
:1016B0000648009400F0E4FE204602B010BD6FF032
:1016C0001200FAE728E0010834E7010884E4010881
:1016D00038B5054640688360184BC0E900120361C5
:1016E00014300BF024FF4FF480736A6808211367ED
:1016F00002F17C0353650023C2E91733C2E91A33B0
:10170000C2E90F33C2E912331165146802F17401A2
:1017100093655366516393635364C2F8B831A36809
:1017200023B19B6C13B1204605499847A3689B6A77
:101730000BB120469847002038BD00BF3002002082
:10174000F599010810B504468168183101F08EF949
:10175000A1682046BDE81040014A183101F02CB9BB
:1017600095F6010838B583680446D3F87832DB076C
:101770001AD4406803685B689847054620B9E0685A
:1017800009F02AF8A3681D75A3685B6C13B129469C
:101790002046984700220CF061FBA368C3F8202381
:1017A000034B185801F0ACFD6FF00F05ECE700BFDC
:1017B00008000000014908F0EBB900BFB5F10108CD
:1017C000F7B5044680680D46D0F878325A0705D53B
:1017D000002108F0FFF9E06808F0D0FFE368DB685B
:1017E00073B9002D3BD0A66806F15607384608F0BD
:1017F000C9F9002835D0394606F5AB70FFF7EAF88D
:10180000A2682946E0680DF10603563208F0B9FFD8
:1018100058B9A06800F5AB715630FFF7DBF8A06847
:10182000563008F0AFF9ADF80600204608F065FD27
:10183000A368D3F874329B0603D50B49606908F09E
:10184000A7F9204600F046FFA268BDF80630204602
:10185000A2F85230A268A2F8503008F0B3FC03B0EE
:10186000F0BD86F85601CBE7F8E401082DE9F04F0A
:10187000A7B004465422002111A80CF0DEFA002380
:10188000CDE90533A36820465633029308F03CFDAA
:10189000204608F080FC10B96069FFF78BFF002636
:1018A0004FF0FF37B246B3463546B146A068142222
:1018B000002118300CF0C1FA204608F013FCA16892
:1018C000E068B1F85020563108F092FF204609F048
:1018D00011F80DF144080396DDE90532012A6DD0B7
:1018E000132B6ED85FBBBBF1000F0AD0204609F066
:1018F00022F81423A26811A956320DEB030008F058
:1019000071FAB9F1000F0CD099F81130FE2B08D103
:10191000059B26AA02EB830252F8542C0AB101332C
:101920000593A068059D436A002B40F0B680CEB1B8
:10193000C3699E422DD00D9600F1180524E00223C4
:101940004146029A06A808F04DFAD8F804200699F4
:101950000346029231B101290AD148B16D4A2046AD
:1019600008F080FD6FF00705284627B0BDE8F08F2E
:10197000059B002B34D0D8F8000001F097F898B1FF
:1019800066B1A5680D9618350CAE0FCE0FC533683D
:101990002B602046FFF7D6FE0125E5E75E4A0121D0
:1019A000204608F05FFDDDE7059BCBB129462046C8
:1019B000D8F8002001F02AFA022809D1059B132B40
:1019C00091D9069B022B8ED10121544B544AC6E774
:1019D000032805D0059B4FF0010B013305937BE7EE
:1019E000039B33B94846D8F8001007AA08F0F1FA6B
:1019F000054608F10408013F9DB3EB68BBF1000FF9
:101A000008D0F3B1204608F07FFC204608F0DAFB4E
:101A1000444AC4E7ABB1AE46A368DDF814A003F1B5
:101A2000180CBEE80F00ACE80F00DEF80030CCF870
:101A30000030AB682BB96B7CFE2B04BF2F7C07F109
:101A4000FF37D5F804C0BCF1000F08D0AE460CAE8D
:101A5000BEE80F000FC6DEF8003033606646A946C8
:101A600003E0059B53B101230393069B17B9022B97
:101A70007FF432AF059B013305932DE7A368DB6A42
:101A800013B1DB68002BEED1274B012100932046D8
:101A9000119B264A08F0E6FCE5E790F82830A5EB14
:101AA0000A05BBB14FF6FF7290F82910FF2918BF45
:101AB0000A469D4202D313449D420BD983690121FA
:101AC00020461B4A08F0CEFC2046FFF73BFE6FF095
:101AD000150549E7012108F072F8A06800F5437088
:101AE00008F091F8A36811AA294602EB8A02204661
:101AF0005B6A98470546A0684FF0FF324FF0FF330E
:101B000000F5437008F026F80021A06808F057F8A7
:101B10002AE700BFA3F60108B7F6010818F7010885
:101B200070010208D5F6010804F7010808FA010857
:101B30003CF70108022210B5836804461A758368D1
:101B40009B6CBBB907F0E5FF8368D3F87832DB0400
:101B50000BD50321084B094A08F084FCA0686FF4F8
:101B6000805100F51E7007F0EAFF2046BDE81040E6
:101B700000F004BF10BD00BF57F701089CF3010837
:101B80002DE9F04F044680680121B1B000F51E70C8
:101B900007F0CAFFA3681B7D022B20D10023099305
:101BA000A36860689E6C03681D6909AB0EB31022C0
:101BB0001BA9A847099B93B10121A06807F0FFFF6B
:101BC0002046099A1BA9B0470021A06807F0F7FF3B
:101BD000A3689B6C002BE3D12046FFF7ABFF6FF0AF
:101BE0000101A06800F51E7031B0BDE8F04F07F0AC
:101BF000A6BF01220DF12301A847099B002BEED0BF
:101C00009DF923209DF82310002AA368C8DB5A7D84
:101C1000032A00F29782DFE812F0040084029B029C
:101C200095020D297CD00A2958D0B3F878220929C9
:101C30006FF3CA02A3F87822A06800F086803DD82E
:101C40000029ADD0082900F0FB810346D3F87422A7
:101C50009207A5D501391629A2D801A252F821F080
:101C6000F12101087B20010883200108732001086D
:101C7000E5210108A1200108A11B0108A11B010801
:101C8000A11B0108A11B0108A9200108B12001081E
:101C9000A11B0108DB200108A11B0108E5200108A8
:101CA000A11B0108A11B0108A11B0108A11B010820
:101CB000E9200108A11B0108132101081B2941D0BB
:101CC0007F2900F0C981A1F120025E2A0346BDD818
:101CD000012107F07FFF9DF82310B9E0D3F87822A7
:101CE000C2F3C7022AB1D3F87822C2F3C7020A2A84
:101CF000ACD1B3F8782261F3CA02A3F87822A568C0
:101D0000B5F85010C1B9284607F064FFE06808F044
:101D100035FD6069FFF74EFD2046FFF70BFF3FE7FB
:101D2000D3F87822C2F3C702002AE2D0D3F878228F
:101D3000C2F3C7020D2ADBE72046FFF797FDC5F87F
:101D40002403E9E7012343752AE7D0F874329B079F
:101D50007FF526AF012107F03DFFA068B0F85030B5
:101D6000FF2B3FF41DAF0025B0F8522000F15601C3
:101D700000F5AB700CF03AF8A3681BA9B3F8522039
:101D80000BA8134483F85651A268142302F5AB72D2
:101D900008F028F80B9914293FF602AF30AB03EB9B
:101DA000810343F8545CA368B3F85220002A53D04F
:101DB000134493F85530202B02D0093B042B4BD809
:101DC00000294CD100250A950A9B30AA02EB830317
:101DD00053F854AC0026504607F0D4FEB346814673
:101DE000B04637463946284616AA00F0D1FB0346CE
:101DF000002840D1012EA76865D10A9B30AA02EBCA
:101E0000830353F8540C07F0BDFE4146064607F124
:101E10001802284600F0BCFB0568284607F0B2FE11
:101E2000864205D0821B92B22046A91908F061FBB8
:101E3000A068B0F85230034493F85630202B31D0CC
:101E4000093B042B2ED9D0F87432DF072FD4202180
:101E5000204600F05BFDA3E60129B3D9013900203B
:101E60000CAB009301900AAB1BAA08F0DDF8054605
:101E70000028A9D194E61B684A46514618460393A8
:101E80000BF026FF60B9039B1846FEF7ABFD5845E3
:101E900038BF5846002E08BFB8461FFA80FB0136EF
:101EA00001379FE70121204608F0C0F978E60021BC
:101EB00007F09AFE2021204600F028FD0121A068AD
:101EC00007F092FE6CE604907FF66AAE0A9A30AB99
:101ED00003EB820252F8543CC1461846039307F0C4
:101EE00051FE049B0590A7F840300496A26849462D
:101EF0002846183200F04CFB039BD0F800A009F1F3
:101F000001094BB1BAF1000F06D019465046059AA7
:101F10000BF0DEFE0028E9D1A168BAF1000F4DD127
:101F2000A1F840A0049B013B0493DFD16069FFF757
:101F300041FC204600F022FD0A9B30AA02EB8303FD
:101F400053F8540C07F01EFE414611AA814628465C
:101F500000F01EFB0746A0683968FF2200F5AB7051
:101F60000BF0C8FE3B684FF6FF7708F1010AB84650
:101F700003935146284616AA0AF1010B00F008FB0C
:101F8000002851D00022A168036801F2551111F810
:101F900001EF985C704503D110B101324245F6D192
:101FA000B9F1000F01D04A4506DBBA42A8BF3A4654
:101FB000013E012E97B237D0DA46DAE7984806910B
:101FC00007F0E0FD069900EB0B074A8FBFB2121A2B
:101FD00092FBF7F2504692B20791069207F0D2FDBB
:101FE00007993F1AB1F84000069A00F1010CA1F8D8
:101FF00040C0B0FBF2F102FB110080B2BFB260B989
:1020000006212046864B874ACDF800A008F02AFA20
:102010003946204600F048FB84E753460621204617
:10202000814A08F01FFAF3E7002F3FF4B9AD039996
:10203000A7EB0902204692B2494408F05AFAAFE5EC
:10204000D0F874329E077FF5ABAD012107F0C2FDD9
:10205000204608F06FFAA3E5D0F874329D077FF5AB
:102060009FAD012107F0B6FDA368D3F874321907BC
:10207000EED4204608F03FFA92E5204608F04DF9EC
:102080008EE5204608F040F9204608F084F810B9A3
:102090006069FFF78FFB0121A06807F09BFD3BE61D
:1020A000204608F043F97BE5204608F04AF977E539
:1020B000D3F874329B0603D55C49606907F068FD6C
:1020C000A368D3F874329F0603D55949606907F0B5
:1020D0005FFD204600F052FC62E500212046FFF73C
:1020E0006FFB5DE50121F9E7204608F006F920467F
:1020F00007F00FFD0121A06807F06CFDA368D3F87D
:1021000074329E067FF54CAD4A49606907F040FD88
:1021100046E5204600F058FB0121A06807F05AFD73
:102120003EE55B2902D102225A7539E5D3F87432B3
:102130009D0706D5622907D14FF0FF31204608F0F0
:102140009EF8A3680022EFE76629FAD10121F5E79E
:1021500000225A75A268D2F8743298077FF520AD34
:10216000A1F131031B2B3FF61BAD01A151F823F068
:10217000ED210108F92101080D220108E1210108E2
:10218000A11B0108A11B0108A11B0108A11B01083B
:10219000A11B0108A11B0108A11B0108A11B01082B
:1021A000A11B0108A11B0108A11B0108A11B01081B
:1021B000E5200108DB200108A12001087B2001089F
:1021C000A11B0108E5210108A11B0108F12101085B
:1021D000A11B0108A11B0108A11B0108FD21010889
:1021E00003235375204608F08FF8D9E40323537571
:1021F000204608F082F8D3E403235375A068D0F892
:10220000741201F0010181F0010159E603235375B5
:10221000A368D3F874329B077FF5C2AC29E700BFEF
:1022200067F901089BF701089CF30108FDE4010828
:1022300002E50108F8E4010810B504468068037D52
:10224000012B1DD14FF0FF324FF0FF3300F54370EB
:1022500007F080FC2046082100F078FA206807F09B
:1022600091FC18B10849606907F092FC2046FFF71D
:1022700061FCA06800F5437007F0C5FC002010BDAC
:102280006FF08500FBE700BFB4F10108F8B5044624
:102290008068154600F51E70002935D04FF4804146
:1022A00007F042FCA3680021DD64606803689B6856
:1022B0009847002844D12046FFF7BEFF00283FD1B1
:1022C000204E214FA06800F52F704FF0FF324FF0E5
:1022D000FF33032106F05EFB0546A0684FF0FF3296
:1022E0004FF0FF3300F543709DB107F033FC2046FB
:1022F0002B460121154A08F0B5F8A068BDE8F84062
:1023000000F5437007F07FBC6FF4804107F017FCC5
:10231000C8E707F01FFC32460221204607F01CFCEC
:1023200020463A46294607F017FC606803685B6957
:1023300003B19847A06800F5437007F064FCC1E75B
:10234000F8BD00BF65170108811B0108A1F701084E
:1023500010B5044608210C4A07F09CFC20460821D1
:102360000A4A07F097FC20460821094A07F092FC28
:1023700020460821074A07F08DFC20460021064A26
:1023800000F01AFB002010BDB8F70108F6F70108AD
:1023900055F80108A9F8010843F90108F8B51E46E7
:1023A00017460B462F4A0821044607F073FC6EB30C
:1023B000082120463B782C4A07F06CFC01256A076F
:1023C00004D108212046294A07F064FCAE4223D9F3
:1023D000082120467B5D244A07F05CFC0135102D66
:1023E000EDD108212046224A07F054FCD6B9082135
:1023F00020461E4A07F04EFC0125AE422B4613D85C
:1024000008212046194A07F045FC18E0082120461B
:10241000184A07F03FFC012508212046154A07F01D
:1024200039FCDBE700252B46FB5C0821A3F12002E9
:102430005F2A28BF2E2320460F4A07F02BFC0135C8
:10244000102D07D06B07D8D108212046074A07F086
:1024500021FCD2E72046BDE8F8400821074A07F0F2
:1024600019BC00BF59F9010860F9010868F90108B1
:102470006AF9010866F901088CF901086CF901088C
:102480002DE9F043044680688846D0F820131546AD
:102490001F4689B0002960D14FF44A720BF0CDFC81
:1024A000E06808F00DFAA06800F543700AF0C6FF76
:1024B0004FF42F794FF41F76A06830440BF0D7FB10
:1024C000A068002283190121484410360BF0A6FBB6
:1024D000B6F52F7F09F11409EED10026A369022178
:1024E0001E60A06866F3820500F51E7007F01CFBF5
:1024F0005022A36820465A871822A3681A872168A9
:1025000007F0D5FBA3684146C3F874526068144ACB
:1025100003681D682346A8470546D0B90122A36871
:102520001A75D4E9090100220023CDE906230E2300
:102530000393109B4FF40062CDE901730495094B9E
:10254000009405F015FDA368C3F82003216A05F087
:102550004DFC284609B0BDE8F0836FF07705F8E739
:10256000AB9B01088D22010810B5044613460A46AC
:102570000146064801F0F6F923691B7923B120468C
:10258000BDE8104007F0CEBB10BD00BF3D9D010867
:1025900038B50B46154648B91449154A521AB3EBDB
:1025A000920F05D251F82350284638BD84680CB9E3
:1025B0000025F9E70F4A94420AD30F4A944207D202
:1025C00018462946226890472B68002BECD1EFE78C
:1025D0000A4A944202D30A4A944205D32468142238
:1025E0005343E518E358F0E70133F8E7B0E4010896
:1025F000DCE40108F0E40108F0E40108DCE401088F
:10260000F0E401080023F7B51646027804462D2AA7
:10261000019305D16FF015030020336003B0F0BDC6
:102620000BF01CFC05460B4F0A46C35101A920467E
:1026300006F0F8FAEB59222B02D16FF02103EBE7F9
:10264000002BE7D1019BA342E4D01B78002BE5D0FF
:10265000E0E700BF0C0000008368D3F874329B06EB
:1026600003D50249406907F078BD704708E50108C5
:10267000014907F072BD00BFB5F101080A1E0DDC6B
:102680000ED042238168D1F87412890608D5002A39
:1026900004494069B8BF524207F05FBD4123F1E7EA
:1026A000704700BF88F901080A1E0DDC0ED04423D4
:1026B0008168D1F87412890608D5002A0449406956
:1026C000B8BF524207F049BD4323F1E7704700BF4E
:1026D00088F901082DE9F0478568044605F15600A0
:1026E000FEF780F90023984695F83C70DFF8549087
:1026F00086B2A268558FED1BB54209DB002E1FDDA7
:102700005633606910491A44BDE8F04707F025BD0B
:102710001D442A4492F856A082F85680A268563387
:102720001A444946606907F018FDA3682B4483F8F2
:1027300056A0A3685B8FDB1BF61A00272B46D8E751
:10274000BDE8F087700102089CF3010808290A46D9
:1027500017D8836893F83E10914212D083F83E2038
:102760008368082AD3F8743205D0990609D505493B
:10277000406907F0F2BC9B0603D50349406907F0A6
:10278000ECBC70478FF901080DE5010838B50D461E
:1027900009780446FFF7DAFF6A78072A11D8A36898
:1027A00093F83F1091420CD083F83F20A368D3F8F0
:1027B00074329B0605D560690249BDE8384007F0D0
:1027C000CCBC38BD98F90108F8B583680446B3F865
:1027D0005020002A55D0B3F85210002951D055315D
:1027E00003F156050B441846A84206D3014611F8DA
:1027F0000169202E3CD0A8423CD286B29DB2AB1BD0
:102800009BB2591C471CD21A014438460BF0FBFA04
:10281000A268711BB2F85030204613FA81F3A2F877
:102820005030A36809B2B3F850201344002283F853
:10283000562007F0FBFCA368D3F874329A0603D540
:102840001049606907F089FC3B46082120460E4A82
:1028500007F008FE2046FFF7FFFEA368D3F87432A6
:102860009B060ED560690949BDE8F84007F075BCC4
:102870000846B9E7014611F80169202EBDD0084687
:10288000B9E7F8BD12E501089CF3010816E5010857
:102890002DE9F04104460D4617460AB1FFF7DCFE6C
:1028A000A368B3F85220D3F87412563213444A077F
:1028B00021D51846FEF796F80646DFF84880A6B9F7
:1028C000A368B3F85020A3F85220A06807F052FC88
:1028D00020B107B115B16069FFF7CAFE6942204611
:1028E000BDE8F04109B207F0A1BC4146606907F0BC
:1028F00034FC013EE3E708212046034A07F0B2FD1D
:10290000DEE700BF130402089CF3010813B58368D7
:102910008DF80710D3F874220446D00725D5B3F8F4
:102920005210B3F850208A421FD0481C9DF807204F
:10293000A3F852000B4483F85620A368D3F874120E
:10294000890710D5D3F87432606913F0040F18BFEB
:102950002A22094907F001FC204607F01CFC10B1AF
:102960006069FFF785FE02B010BD012220460DF11F
:10297000070107F084FDF6E78CF9010810B504465D
:1029800083680221084A07F06DFDA368D3F874320A
:102990009B0707D52046FFF79DFE2046BDE8104067
:1029A00007F01FBC10BD00BF9CF30108014907F0F0
:1029B000D4BD00BFB5F101082DE9F04F0E4600214E
:1029C000044617460D4689B0304603AA01F10108B6
:1029D000FFF7DEFDB0B995B127B13A460821204690
:1029E00007F040FD00211E4FDFF87890DFF878A057
:1029F000304603AA01F10108FFF7CAFD60B909B02A
:102A0000BDE8F08F006810B1FDF7ECFF80B28542A1
:102A100038BF05464146D7E703688BB11A787AB1CB
:102A2000D0F804B04A46CDE9005308213B46204681
:102A300007F018FDBBF1000F04D16069FFF7B6FF86
:102A40004146D5E7524620463B46082107F00AFD9D
:102A50006A1D5946204692B207F08CFDF0E700BF90
:102A6000BBF90108A1F90108A8F90108F7B50F6839
:102A700005460E46A7B13846FDF7B4FF84B2094BB0
:102A80002846009308213B46074A07F0EBFC2846FE
:102A9000E21C716892B203B0BDE8F04007F06ABD75
:102AA0003C46ECE7B7F901089CF7010810B5074967
:102AB0000446FDF785FF38B120460549FDF780FF44
:102AC000B0FA80F0400910BD0120FCE7ADF9010823
:102AD000B0F9010810B583680446D3F874329B0638
:102AE00003D50649406907F0BCFD5022A3680020C9
:102AF0005A871822A3681A8710BD00BF1AE501087B
:102B000008B5836908211B68024A07F0C3F8002052
:102B100008BD00BFBEF901082DE9F3410F4A0821A5
:102B2000054607F0B7F800230D4C0E4EDFF838804D
:102B3000B44203F1010703D3002002B0BDE8F081E5
:102B4000226A9BB20192A26808210092284642465E
:102B500007F0A0F82C343B46EAE700BFCEF90108A5
:102B600084E40108B0E40108E6F9010808B5024967
:102B700007F09DF8002008BDB6F101087FB50446B6
:102B800000250E4EA2680DF10E030121E06802F54A
:102B9000AB7207F0F6FDBDF80E00A36850B103F567
:102BA000AB73009332462B460821204607F072F89B
:102BB0000135E7E783F8560104B070BDF7F9010865
:102BC00010B5044607F0A0F808210346024A204643
:102BD00007F060F8002010BD16F50108022907B5BE
:102BE0000DD15368012101930C4B009313680C4ADB
:102BF00007F050F86FF0150003B05DF804FB836830
:102C0000084AD3F87432082113F0020F064B08BFAC
:102C10001346064A07F03EF80020EDE70EFA0108D9
:102C200005FA010801FA01083CF3010823FA01083A
:102C300010B583680446D3F874329A0603D5074961
:102C4000406907F00EFDA368D3F874329B0603D5E4
:102C50000349606907F005FD002010BD21E501086A
:102C600026E50108F0B50129044685B00CD053686B
:102C7000012101935F4B009313685F4A07F00AF844
:102C80006FF0150005B0F0BD8368D3F87432990673
:102C900003D55A49406907F0E4FC00256FF0F901BB
:102CA0002046FFF7EBFCFA212046FFF7FDFCA06869
:102CB0004FF48072294600F5AB708DF80B500BF085
:102CC000BCF84F49606907F0CCFC606907F02AF84E
:102CD0004FF47A766068012203680DF10B011F69D9
:102CE00003ABB847039BF3B9013E4FF47A70B6B219
:102CF0000AF0EAFA002EEDD1A368D3F874329B06ED
:102D000003D54049606907F0ACFC5022A368204617
:102D10005A871822A36803211A873B4A06F0BAFF94
:102D20006FF00700AEE79DF80B20A3681B2A53D075
:102D300093F856111B29CDD1522A4DD15A1900238F
:102D400082F85631A66896F857215B2A2BD10225C6
:102D500006F2571010F8011F2A463B2905F101051C
:102D6000ADB223D1FF2AC7D002F5AB7216FA82F1B9
:102D7000002211F8010F18BBFA2A28BFFA22FA2BF9
:102D800028BFFA2386F85601A1684A87A2681387EC
:102D9000A368D3F874329A0603D51A49606907F01C
:102DA00060FC00206EE786F85631A5E703EB83034D
:102DB000303901EB4301B5F5807F8BB2CAD19BE777
:102DC000013502EB8202ADB2303800EB4200B5F5BE
:102DD000807F82B2CDD18FE72B440135ADB2092D72
:102DE00083F856217FF676AF0022A36883F8562138
:102DF00082E700BF0EFA010805FA01082CE5010878
:102E00006EFA010830E5010834FA01082DE9F04FA7
:102E100007461546894689B021B1104607F056FD90
:102E200000285BD1032455E05C463CE029460AF5C6
:102E3000AB700AF06FFF0646002854D0FDF7D2FDB4
:102E400082B2601C3146013230440AF0DCFF224677
:102E5000594630460AF0CAFF4FF020033355BAF8FE
:102E6000543008F1010801331C44AAF854400024EE
:102E700001994B1C484603AA0193FFF789FB0646BC
:102E8000E8B100222846316807F0F3FE0028EFD1B0
:102E9000D6F800B0D7F808A0BBF1000FC4D0584650
:102EA000FDF7A0FD84B2BAF854302344FF2BBDDDFA
:102EB0002B46032138460D4A07F0D4FA0124B8F115
:102EC000000F07D0B8682A4600F1540100F5AB7036
:102ED00007F058F8204609B0BDE8F08F4FF0000821
:102EE00002244146C5E70224E9E700BF36FF010896
:102EF00008B5034B1B689847BDE8084000F026B8AA
:102F00007800002030BFFFF7FDBF00BF2DE9F04182
:102F100005460B4EDFF82C80324606EB0807CC1B2B
:102F2000204609490AF062FFA01942460021083CE8
:102F30000AF083FFC5F8A84007F10800BDE8F0815A
:102F40000000000008000000F0E40108074A936850
:102F500093F90E10002907DB526993421FBF044A00
:102F6000536843F080535360704700BF2C1000201B
:102F700000ED00E0154B9A6A12F0007F9A6A14BFC8
:102F80001E201D2012F0807F9A6A18BF1F2012F4A5
:102F9000801F9A6A18BF022012F4002F9A6A18BF85
:102FA000212012F4802F9A6A18BF222012F4003FC9
:102FB0009A6A18BF232012F4803F9A6A18BF24200F
:102FC0006FEA02426FEA12429A62704700ED00E037
:102FD00010B5194B0246986A9C6A10F4805F14BFC2
:102FE0001720162014F4006F9C6A18BF1820A4053F
:102FF00009D5986B986A000404D51AB19A6A22F42C
:1030000000429A6219200C4B9A6A12F4806F9A6AF5
:1030100018BF1A20D2050CD49B6A13F4005F18BFA6
:103020001C20054A936A43F47F43936200230B708C
:1030300010BD1B20F5E700BF00ED00E010B51C4BF4
:103040000246986A9C6A10F0100F14BF11201020DD
:1030500014F0080F9C6A18BF1220A40709D5586BFA
:10306000986A000604D51AB19A6A22F080029A6220
:1030700013200F4B9A6A12F0010F9A6A18BF14209E
:1030800012F0200F9A6A18BF1520D40658BF9B6A09
:10309000074B9A6A920642BF5A6A22F400525A6259
:1030A0009A6A42F0FF029A6200230B7010BD00BFC3
:1030B00000ED00E0F0B5474B04465B6800258BB09F
:1030C000C3F3080385F31188BFF36F8F02F07F40CD
:1030D000B0F17F4F11D102F00C0008280DD010077D
:1030E0004CBF0C4601250022033B8DF80720032B23
:1030F00005D8DFE803F02462665F2C46F3E700237F
:103100009DF80720CAB902AE04F1200732462068B4
:103110006168083403C2BC421646F7D1099A002DF3
:1031200053D0C2F3080121B96FEA52226FEA42225A
:103130000992184602A907F022FC0BB0F0BD254BFE
:10314000DA6A9107DBD4DA6A002AD8DBDA6A52003D
:10315000D5D55A69A16942F480725A61BFF34F8F85
:10316000BFF36F8F5A6931F8021C22F480725A61E2
:10317000BFF34F8FBFF36F8F4DF60272914209D0AC
:103180009A6AD2B242B101200DF10701FFF756FF52
:103190000346B5E72368B3E79A6A12F47F4F05D078
:1031A00001200DF10701FFF713FFF1E79B6AB3F56B
:1031B000803FA4D3FFF7DEFEEAE700200DF1070110
:1031C000E4E700200DF10701EDE722F4FF7222F0A1
:1031D0000102ADE700ED00E0044B5A6942F0100235
:1031E0005A615A6942F480625A61704700ED00E00A
:1031F000EFF30880EFF3098101B57246FFF75AFF3C
:1032000001BD00BF002080F31488BFF36F8F002042
:1032100080F30A8880F30B88002011490860BFF30F
:103220004F8F104880F3088800F044F8102080F396
:1032300011880D484FF0AA014FF400620AF081F89E
:1032400009484FF40061401880F30988EFF31480B7
:103250000221084380F31488BFF36F8F00F0F6F863
:1032600094ED00E0D02D002090200020BFF34F8F80
:103270000549064BCA6802F4E0621343CB60BFF312
:103280004F8F00BFFDE700BF00ED00E00400FA052E
:10329000002318460649D1F89020C2F30722934232
:1032A00000DB7047C1F89830C1F8A0000133F6E7A1
:1032B00000ED00E010B572B6002484F31388FFF728
:1032C000E7FF23464FF0FF300C4A03F120010133A2
:1032D000102B42F82100F8D100234FF0FF30074AAD
:1032E00003F160010133102B42F82100F8D162B6DE
:1032F000BFF34F8FBFF36F8F10BD00BF00E100E041
:10330000084B9B6883420BD1EFF3058343B1064B17
:103310005A6842F080525A605A6A22F400425A6255
:103320000AF09EBA2C10002000ED00E06FF00A01B8
:10333000094A9368C3F8B0100849C3F8AC004B6859
:1033400043F080534B60002383F31188BFF36F8FEA
:103350009368D3F8B00070472C10002000ED00E017
:10336000EFF31183102383F31288BFF36F8F4FF0B5
:103370000061094A53699360084A5160D3F8A81064
:10338000074A11600021D3F8AC20C3F8AC1082F3D7
:103390001188BFF36F8F70472C10002000ED00E004
:1033A0001C0C00200E498A684FF030001044EFF3E7
:1033B000098C80E8F01F74467046FFF7D1FFA646DF
:1033C00007498A6802F1300090E8F01F8CF3098801
:1033D00002F1000004B507F0E0FABDE804407047D0
:1033E0002C1000201EF0040F0CBFEFF30880EFF349
:1033F0000980816911F8021C0229FFD001B507F08C
:10340000C4FA01BD00B2002807DB01234109034AC9
:1034100000F01F00834042F82130704700E100E0D7
:1034200000B2002801F10101ACBF00F16040064B81
:103430004FEA0111C9B2ABBF00F5614000F00F00C7
:1034400080F800131954704714ED00E00B4A08B5DA
:103450000B4B22F07F029A60BFF34F8FBFF36F8F49
:10346000D3F8882022F47002C3F8882004F024F9ED
:1034700005F036F900F04EF804F062F90004010896
:1034800000ED00E042F8203C009B0B4942F81C3C58
:10349000019B21F0010142F8183C029B42F8081CF4
:1034A00042F8143C4FF0807342F8043C0023203A69
:1034B0000265C0F8AC307047410B010800B50E4BF7
:1034C00015469860D0F8A8200C4B0E461A60D0F82C
:1034D000983083F30B882C4686F309884FF0000060
:1034E000074B984720464FF000014FF000024FF085
:1034F0000003044C204700BF2C1000201C0C0020AF
:10350000A5A90108410B01081022014B1A6170475F
:1035100000ED00E0002310210348C2180133832B83
:1035200082F80013F9D1704700E100E008B5EFF32D
:103530000583064A103B02EBC30152F83300496889
:103540008847BDE80840FFF701BD00BF64E00108FF
:103550001FB5094C094A23460121094800F0FAF831
:1035600000230393074B0121E41A01A8019302945D
:1035700000F0FAF804B010BD0000042000000020A4
:1035800050EA01086002002010B50C7A0B6804F0C4
:103590001F0223F01F031A43CB68640923F01F03A3
:1035A000054943EA440343F00103C1F89800C1F818
:1035B0009C20C1F8A03010BD00ED00E010B5074B15
:1035C000D3F89030C3F30723013B984202D8FFF7AA
:1035D000DBFF10BD6FF01500FBE700BF00ED00E062
:1035E0002DE9F04F0F46144606464FF000084D4DAA
:1035F00085B0B84580F29280D6F80490B9F1000FFA
:1036000036D0B9F11F0F40F2878019F01F0F40F03C
:103610008380D6F800A01AF01F0F7DD1504607F026
:10362000D5F9834609EB0A00013807F0CFF9834545
:1036300072D11BF1160F6FD05C456DDDC5F898B0E7
:10364000D5F89C10C5F898B0D5F8A03021F01F012E
:1036500043F01F0AD6E900321A44994202F1FF39B9
:103660001ED1CA4508D131465FFA8BF007F0B7F991
:1036700008F101080C36BCE73146C5F898B0D5F81A
:103680009C3022F01F0203F01F031343C5F89C3047
:10369000E0B207F0A4F910F1160F3DD0441CE7E7A3
:1036A000C5F898B0D5F8A020013B23F01F0302F025
:1036B0001F021343CA453146E0B2C5F8A030E8D036
:1036C00007F08DF910F1160F26D0C5F898B0D5F88F
:1036D0009C209DF808300AF1FF3A62F304038DF84C
:1036E0000830D5F8A0309DF808205B0863F3471236
:1036F0008DF80820D6E900321344009323F01F030D
:103700005344A3EB0903013023F01F036946C0B201
:103710000393FFF753FFBEE76FF01504204605B093
:10372000BDE8F08F00ED00E00522044BC3F89420C3
:10373000BFF34F8FBFF36F8F704700BF00ED00E006
:10374000BFF35F8F0022024BC3F89420704700BF85
:1037500000ED00E010B5034C2278FFF741FF207028
:1037600010BD00BF8B1000202DE9F74F294D8A4670
:1037700006464FF00008AB46274FD0451BDAD6F877
:103780000490B9F1000F3FD031680846019107F06D
:103790001DF90199044609EB0100013807F016F9FB
:1037A00084424FF014021D4B08D002FB08F36FF067
:1037B00015024BF8032003B0BDE8F08F14F1160F8B
:1037C0002C60F8D01978A142F5DD02FB08B0C7F8EB
:1037D0009840C7F89840D7F89C4000F10801007B5A
:1037E00064F304000871D7F8A0000C79400860F376
:1037F00047140C71D7F89C1021F01F016960D7F8AD
:10380000A01021F01F01296108F1010814350C36C0
:10381000B3E700BF200C002000ED00E08B1000207B
:10382000F0B54149414CD1F890302568C3F30723E6
:103830009D4287B075D80020FFF782FF3C4BC1F84E
:10384000C030854216D13B4C01A82570FDF7ECFA3B
:1038500000250646384FAE4213D100202378324966
:10386000D1F89020C2F30722934254DBFFF75CFFAC
:1038700000202FE0616801EB0011FFF785FE0130A9
:10388000DFE70199280101EB0513DA683A40B2F548
:10389000001F21D0B2F5800F2BD0B2F5801F38D198
:1038A0005A689B680958013B22F01F00034401201D
:1038B000844623F01F0340EA4C10CDE902218DF825
:1038C000100002A920780593FFF778FE00281DDA82
:1038D0006FF0150007B0F0BD5A689B680958013BAE
:1038E00022F01F0003444FF0020C012023F01F03BD
:1038F000E1E75A689B680958013B22F01F00034426
:103900004FF0000C022023F01F03D4E7237801338B
:10391000237001359FE7C1F89830C1F8A00001334A
:103920009EE74FF0FF30D5E700ED00E05CEA0108CC
:10393000AAFF44008B1000200000F0FF08B5024BE6
:103940001B689847002008BD340C0020034B044A34
:103950001860937843F0020393707047340C002092
:103960007C000020F0B587B007460E4614460021C3
:10397000102268461D460AF060FA02238DF80230D4
:10398000054B2A4621466846CDE90476019305F0A9
:10399000AFF907B0F0BD00BF11AA010808B506498C
:1039A000064821F00701C1F1005202F5802205F01E
:1039B0009CFD002008BD00BF773B0020380C002094
:1039C00008B500F0B7F8012200230949C0E9002238
:1039D00041610849C0E902330A60074903610A608E
:1039E000064A1360064A1360064A136008BD00BF0A
:1039F000B6F10108A8000020A40000204C0C002013
:103A0000480C0020440C00202DE9F04107460E46EA
:103A1000154600F08FF8C36804461BB943691A784D
:103A2000002A41D10023E3606368BB4256F823209B
:103A300008DB324B6361204600F062F84FF0FF3044
:103A4000BDE8F081511C616192F80080B8F12D0F42
:103A5000EFD1911C616151782D29A16004D1927838
:103A60006AB901336360E4E749B9244B414628460B
:103A700063610AF020F90028DDD0C4F80880D4F88A
:103A80000880284641460AF016F9B8F13A0F6369F2
:103A900000D070B91B7813B96368013363602046A6
:103AA00000F02EF83F20CBE75A1C42611B78836060
:103AB000E5E742783A2A0BD0002222611B7813B93D
:103AC000636801336360204600F01AF8A068B7E726
:103AD00018786268094928B901329742626004DDAA
:103AE00056F82230C4E90431EAE761612D782046B6
:103AF0003A2DD5D100F004F82846A1E7B6F1010827
:103B00000268074B1A604268064B1A608268064BCF
:103B10001A60C268054B1A600269054B1A6070474B
:103B2000A8000020A40000204C0C0020480C00201D
:103B3000440C0020004870478C00002038B5064C2B
:103B4000064DAC4201D3002038BD54F8043B002B95
:103B5000F7D09847F5E700BF7CE4010884E401084A
:103B6000084B0246186808B1036800B970474189DC
:103B70009142FBD01BB1196818460B46F5E7194670
:103B8000FAE700BF500C00200A4B1B681BB11A68F3
:103B90001BB9184670471A46FAE75989814206D080
:103BA0001AB1116813460A46F2E71146FAE7D868D7
:103BB000704700BF500C002000230360044B5A687C
:103BC00012B9C3E90000704710605860704700BF29
:103BD000500C002000232DE9F04F04460D468BB019
:103BE000CDE9063301F10C0A2B8A3BB999462846E8
:103BF000216807F039FA0020216880E0072B40F2A5
:103C00000381EA6806AB1068516803C3BDF81A3037
:103C100008215BBA1FFA83FBADF81A30BDF81C30DF
:103C200050465BBA9AB2ADF81C30059207F0A9FB7A
:103C30002B8A5B45C0F0EE809DF8188018F00509CE
:103C400040F0ED802846216807F0FAF90646002882
:103C500000F0E88001226068042140F8045B2B8AB0
:103C6000CDE901990092EA6809F04DFA3146A06861
:103C700007F031F89DF81830A768C3F3C103012B92
:103C8000C7F84C9000F2C3800598FFF769FF002841
:103C900000F093809DF81F1006F0EEFF002800F062
:103CA0008C809DF8183013F007032ED0022B47D0DC
:103CB0004FF003093146A06807F00DF8D4F80880EA
:103CC000022108F10407384609F0DAFA00287AD010
:103CD00002223846554909F0B8FA002873D04946FF
:103CE000384609F096FA022100286ED1384609F0CC
:103CF000CFFA2846216807F0B7F93046216807F067
:103D0000B3F948460BB0BDE8F08FD0F80090A0683A
:103D1000B9F1000F51D00F21043009F0B1FA002899
:103D20004ED02046C8478146A0680F21043009F0D4
:103D3000AFFA40B9B9F1000F08BF4FF00709B9E772
:103D4000D0F80490E3E7B9F1000FB3D1B7F84E9083
:103D5000B9F1000F12D018F0180F0FD1B7F84C00BE
:103D6000FFF712FF034610B94FF00109A2E74846DA
:103D700098478146B0B1002E4ED09BE7D7E9008727
:103D8000D8F80C3008A9FF1AA7F1080206A806F017
:103D900083FFA8F81070A3681B68DA680B4603CB92
:103DA00010605160236830469B6A9847814698BBF3
:103DB0005946504607F0E5FA16E74FF0080979E74B
:103DC0004FF0070976E7022190E7384609F060FADC
:103DD00000288ED0D8E900A7DAF80C3008A9FF1A1D
:103DE000A7F1080206A806F057FFAAF81070A3680A
:103DF0001B68DA680B4603CB1060516023683046BD
:103E00009B6A9847002674E74FF00909EFE64FF0E8
:103E10000D094FE74FF009092E4600254AE74FF0FC
:103E20000809F9E74FF00209F6E700BF97FF01081C
:103E300070B504460E4615468AB3A0F84810A0F89F
:103E40004A201849032209F000FA18B9002000F0AE
:103E5000010070BD0221204609F012FA0028F5D0B9
:103E600005222046104909F0F0F90028EED031462D
:103E7000204609F0D8F90028E8D0022220460B4954
:103E800009F0E3F90028E1D02946204609F0CBF9F2
:103E90000028DBD00221204609F0FAF9D7E70120FB
:103EA000D7E700BF9AFF01089EFF010897FF0108AE
:103EB00070B50C4615461E4648B133462A46214683
:103EC000074805F0FEFC002818BF0C2070BD054B0C
:103ED0000348197805F007FD0028EED00A20F5E721
:103EE000580C0020840E00207FB50C46002843D1DA
:103EF000234B69461878FCF79DFF00283ED10098B7
:103F000005F047FC0646002832D0009B5B68013B69
:103F1000191901AA07F05CFB014658BBDDE9000551
:103F2000029B1D444368ED1A2A4605F018FC04461E
:103F300030B10D24009805F0CFFB204604B070BDD1
:103F4000009B986807F005FAA842F3D3009B5968D4
:103F5000014401AA304607F03BFB009801994368F1
:103F60008268C91A521A05F0FAFB0028E2D0E0E78D
:103F70001224DFE71324DDE71424DEE70A24DCE75C
:103F8000840E0020F0B50D46064618220021284672
:103F900085B009F052FF7368581C00F09080002B28
:103FA0007CD132691F2A6DD9B268511C6CD0C5E929
:103FB0000023F768434B3A689A4267D1B269202AD6
:103FC00066D862B140480368013308D0037B9A4247
:103FD00005D171690D3009F05EFE0446A0B10020E4
:103FE00006F0BFFF18B906F01DFF00280FDA012008
:103FF00006F0B7FF20B9012006F014FF002806DA0A
:104000004FF0FF330924EB60204605B0F0BDE860B7
:104010006946C0B2FCF70EFF00283BD10098B26899
:1040200083689A4203D905F057FB1E24ECE705F09C
:1040300053FB337F73B9287B01A9FCF7FBFEB0B9B2
:10404000019806F0B9FE0446019805F045FB002CE6
:10405000DADB0DE002A806F0C6FFE8B907F11401AB
:1040600002A806F0E7FE0028E5DB1B24CCE70A24C3
:10407000B4FA84F464096C743369AB6001232B7463
:104080000024C1E71624BFE71524BDE71724BBE7CA
:104090001824B9E70A24B7E71A24B5E70A4A1368CF
:1040A0009168EB60002329606B60736852689342EB
:1040B000E6D1326913449942DED21F24A4E71424C6
:1040C000A2E700BF3DB8F396840E0020F0B5202390
:1040D0000F4695B00293044616466B460CAA384626
:1040E00003A9019200F048FA0546002840F08680B6
:1040F0000F21204609F0C4F8002873D0042220467E
:104100003F4909F0A2F800286CD0204607F00101D1
:1041100009F089F8002865D007222046394909F0BE
:1041200094F800285ED005A903A800F0CBF9002878
:104130005CDA05222046344909F087F8002851D07E
:1041400004222046314909F080F800284AD0204650
:1041500001A909F074F8002844D0082220462C490F
:1041600009F073F800283DD00099204681F0100135
:10417000C1F3001109F09AF8A0B30722204625499F
:1041800009F063F870B32046C6F3400109F08EF8D9
:1041900040B309222046204909F057F810B32046C1
:1041A000C6F3800109F082F8E0B1062220461B49DF
:1041B00009F04BF8B0B1204606F0010109F076F89D
:1041C00080B109222046164909F03FF850B1204637
:1041D000C6F3C00109F06AF820B10F21204609F0AA
:1041E00057F8054605F0010015B0F0BD192220462C
:1041F00005A98DF82C5009F031F89FE70120F3E76D
:10420000A4FF010837F30108A9FF0108AFFF010867
:10421000B4FF0108BF030208BDFF0108C7FF010882
:10422000CEFF01082DE9F3418568062204352846B2
:10423000324909F00AF838B906F0B5FE06F0B4FEC6
:10424000072002B0BDE8F0810221284609F014F8E9
:10425000044606F0A8FE002CF0D000240DF1070162
:1042600020468DF8074006F05DFE0746204606F022
:104270009CFE9DF807300646022B80F001082AD1EB
:1042800087424FF001072CD146452DDA3A46314698
:104290002846FFF71BFF0028D0D02246414628467B
:1042A000FFF714FF0028C9D00221284608F0ECFFD0
:1042B0000028C3D00B222846114908F0C6FF002869
:1042C000BCD00021284608F0A4FF0028B6D006F094
:1042D0006BFE0020B5E787424FF00507D4D0022BD4
:1042E000D2D8084AD456CFE7224641462846FFF79F
:1042F000EDFE0028A2D03A463146D0E7D8FF0108AB
:10430000DFFF0108F3FF01082DE9F3414FEA6008E0
:10431000044640460F4606F048FE002306460DF1CF
:10432000030140468DF8033006F0FCFD0546EFB171
:1043300006F03DFE804505D19DF80330012B26D1C6
:104340001C2420E0A6423DD09DF80330012BF7D07D
:10435000002B3BD0022B39D0204606F063FD01A98B
:10436000C0B2FCF767FDD0B10A240CE0A6422BD006
:104370009DF80330012B03D07BB1022BE0D0EBE79B
:10438000A042DDD10024204602B0BDE8F081002B20
:10439000E0D1A542F6D0A642F0E7A042EEE7331BFB
:1043A00059423A460198594108F045F9044628B166
:1043B000441E032C8EBF0124064B1C57019805F0A8
:1043C0008BF9E0E72024DEE72124DCE7A542C3D116
:1043D000D8E700BFF6FF0108F0B5364997B00C9159
:1043E00004210D91344902AACDE90E12334A00236B
:1043F000119207221292324A0546D0E90104139223
:104400000DF10302CDE902338DF8033001938DF8ED
:10441000403014928DF85430022201AB0CA90430C4
:1044200006F073FC002841D106F0BDFD039B043467
:104430006BB99DF8033063B106F0B9FD06F0B5FD28
:104440009DF80310FFF760FF18B382B202E0202B43
:104450000AD0182220460121FFF7EAFC044606F0A4
:10446000A3FD2CB300241BE004AA1746029B03F112
:10447000200C164618685968083303C6634532464F
:10448000F7D10021384606F094FD0028D8DA08223A
:10449000E0E72846FFF7C6FE044620B106F084FD9B
:1044A000204617B0F0BD06F07FFDDBE70324F7E7F9
:1044B0000724F5E7AFFF0108CDCE0108EBFF0108A7
:1044C00063CF010873B50E464388054601934378D0
:1044D0001921009303780B4A304604F001FB041EB7
:1044E00003DA4FF0FF3002B070BD6B683BB1064A93
:1044F000C4F11901301904F0F3FA031EF1DBE018DE
:10450000F1E700BFFAFF010806000208033880B295
:1045100019289ABF014B1856012070471D00020848
:1045200008B5054B2C220021184609F086FC4FF0F7
:10453000FF3240F8042C08BD880E00200148FFF728
:104540003BBB00BFAC00002010B5041D0322204679
:10455000074908F07AFE08B9072010BD054B204630
:10456000596808F06AFE0028F6D00020F5E700BF81
:1045700001FA0108840E00202DE9F0438BB00C46AF
:104580000DF10301054616461F4606F0B1FC014633
:10459000002840F08D802023284602AA06F087FCE0
:1045A000002850D19DF80380DFF81091B4BB029829
:1045B000484540D10FB1069B3B60059BBDF81040BC
:1045C00028461C44042321460DEB030206F06FFC31
:1045D00040B946F60813BDF804209A4204BFBDF85E
:1045E0000630E4180423214628460DEB030206F0AA
:1045F0005EFC58BB46F60713BDF804209A4225D14D
:104600008146BDF806700434274404F10408B84517
:104610001ED989F001094FEAC90014E00822414679
:10462000204609F00AFC0298484504D107AB03CBA9
:1046300020606160BEE74FF0013303FB08F840459E
:1046400014BF172003200BB0BDE8F0830420FAE765
:104650000423214628460DEB030206F028FC00281F
:10466000F1D1BDF80420BDF80630FF2A05D14FF680
:10467000FF72934205D10520E5E7102A01D1202BD6
:1046800004D0043303EB04084446BEE7B9F1000F3D
:1046900010D116B94FF00109F6E72434BC420BD80B
:1046A00032464146284606F002FC0028F2D0CAE70E
:1046B0000220C8E70620C6E70720C4E73DB8F39606
:1046C00070B51C4A8AB005920422D0E90105002386
:1046D00001260692184ACDE90163079201AA0892C1
:1046E0008DF82430324602AB05A9043006F00DFBEC
:1046F0000446E8B90346024603A901980435FFF7CA
:104700003BFF58B9019806F02CFC38B10922012171
:104710002846FFF78DFB20460AB070BD019806F0D1
:10472000A0FB0646FFF7FCFE002EF4D0B2B2EEE787
:104730000324F0E7A4FF0108C3CE01082DE9F043EC
:104740000024D0E90137B7B00DF12008214620221E
:104750000646404603F10409019409F06EFB4FF050
:10476000FF33CDE909335B4B0325189305231993D8
:10477000594B0BAACDE91A38584B20921D930423AC
:104780001E93574B574A1F932E930DAB2F93564BA7
:10479000229231930723554A0AA9249229923293EF
:1047A00009AA534B25912A925249534A33930FAB8E
:1047B000CDE92715CDE92C2534930622484601ABD7
:1047C00018A98DF870408DF884408DF898408DF8C8
:1047D000AC408DF8C0408DF8D440239506F095FA92
:1047E0000446002874D1404602A90437FFF7CAFBEB
:1047F00088B182B201213846FFF71AFB0023054633
:10480000194610AA0120FFF7B7FEFFF789FE002D19
:1048100008BF072406E09DF818303BB9B068FFF7E1
:1048200093FE0446204637B0BDE8F083334D059B28
:104830002B60029BAB60099BDBB9DDF838800D99DA
:10484000424605F10D006C6085F80C8009F0CEFA47
:1048500008F10D002146C8F12002284409F0EDFAC4
:104860009DF819302BB120460A99FFF73DFB00282F
:10487000BFD1D5E901120C9B2BB9914222D0B0686F
:10488000FFF762FECEE70B449A1A534253410B994D
:10489000049A0998FFF70CFB034688B96A680499E3
:1048A0000A44A9686A608A42E9D1014610AA012037
:1048B000FFF762FEB068FFF747FEFFF731FEB1E792
:1048C00082B297E7194610AA0120FFF755FED6E7F6
:1048D0002C46A7E70A000208C3CE01081000020810
:1048E000CDCE0108150002080E020208C9CE01084B
:1048F00063CF010801FA010819000208840E0020A4
:104900000148FFF759B900BFBC00002008B540F6C8
:10491000C4120023024803F063FA002008BD00BF60
:1049200000000020F0B50023D0E901450127134A1B
:1049300089B00392124A01AECDE90133CDE90526D3
:104940008DF81C30201D6B463A4603A9049706F0EB
:10495000DCF9044678B904353A462846094908F096
:1049600074FC20B13146284608F06CFC00B90724DD
:10497000204609B0F0BD0324FAE700BFB6F70108EE
:10498000D3CE010899FB010813B5084C204608F066
:104990005BFE074B204600934FF40062032305495A
:1049A00003F0B6F9002002B010BD00BFD80400200B
:1049B000F4EA01089018002000220023014806F0C4
:1049C000D0BC00BF0402002010B5836A044643B186
:1049D000054908F00DFE04F1100008F0A8FD0020C4
:1049E00010BD6FF01500FBE70FB0010810B50446CD
:1049F000103006F0BCFC2146BDE81040014808F02C
:104A000013BE00BFD804002038B5064A018A044608
:104A1000C06800F047F80546204606F00FFB284620
:104A200038BD00BF294A010870B50446451810B1C9
:104A3000054EA54201D1002070BD14F8011BB368DA
:104A400001485B689847F4E728E00108F8B50C4E88
:104A50000C4F051D00220023284606F086FC044664
:104A600068B1C168028A304606F0C8FB014610B141
:104A70003846FFF7BBFF204600F0EAFAEAE7F8BD48
:104A8000B40E0020BC0E00200348044B8362044B8C
:104A9000C362FFF799BF00BFBC0E0020094A01089E
:104AA00083B001082DE9F74F05460E4614460A4625
:104AB0000146002004F077FB4FF0000A074640F65D
:104AC00006134FF05D08D1464FF0010BB245ADF82B
:104AD000023001DB002062E002210DEB0100A04763
:104AE00000285CD1BBF1000F13D0B31C5BBAADF84A
:104AF0000230ADF804302B782246032101A88DF84E
:104B0000063006F06CFB002849D10AF1010AA8F131
:104B10000308A6EB0A0343459B46A8EB0303A8BF83
:104B2000C346012B05D84FF000090BF1FF3BD344DE
:104B300014E0FCDD4FF00109F9E735F80A2005EB38
:104B40000A039B78ADF804200321224601A88DF8C2
:104B5000063006F044FB10BB0AF1030AABEB0A0374
:104B6000022B5246E9DCB9F1000F0FD0A6EB0A0385
:104B7000012B17D0022B22D043B9224602217BBA47
:104B8000ADF8043001A806F02AFB40B9012119480C
:104B9000A0474FF0000B41F20443002896D003B029
:104BA000BDE8F08FAB5C03218DF804303B0A224650
:104BB0000AF1010A8DF805308DF80670E2E70AF176
:104BC000010315F80A20EB5C8DF804208DF8053000
:104BD00022463B0A032101A80AF1020A8DF8063099
:104BE00006F0FDFA0028DAD1224601218DF8047082
:104BF000C8E700BFB5F1010830B50F2A0D468BB0EC
:104C000025D901A9FCF716F90446A0B901462023CD
:104C1000019802AA04F061FD0446019804F05CFDCD
:104C20004CB90C4A0299BDF81030914201D11F2BAA
:104C300004D86FF0040420460BB030BD01232B6074
:104C4000059B6B60079BAB60089BEB60F3E76FF025
:104C50000B04F0E73DB8F3961346002270B51146F9
:104C60000646586803F0DEFF044640B901210D4AAC
:104C7000304605F00FF86FF00C05284670BD01288E
:104C800002D10146084AF3E7C0B206F050FB0546E0
:104C90000028F2D0234601213046044A04F0FAFFEE
:104CA000EBE700BF420002085F0002087F00020835
:104CB00038B5054606F026FB044628B10346012117
:104CC0002846024A04F0E6FF204638BD9800020854
:104CD000012938B505460DD90E495068FBF770FE1D
:104CE000A8B1032128460C4A04F0D4FF6FF0150444
:104CF000204638BD002006F0E1FA04460028F7D02F
:104D0000034601212846054A04F0C4FFF0E70120CC
:104D1000F1E700BFCEFF0108AF000208C2000208A1
:104D20002DE9F04F8BB0044606F0C6FA0138C0B248
:104D3000042896BF4F4B504B53F8203008214F4A60
:104D4000204604F0A7FF06F0C1FA082103464C4AAA
:104D5000204604F09FFF00264A4D4B4FDFF82C8180
:104D6000DFF82C913A460821204604F093FFD5F84D
:104D700004A0102206A95FFA8AF0FFF73DFF88B170
:104D8000444B0290CDE900A32B6801212046424A02
:104D900004F080FF08351EB100200BB0BDE8F08F95
:104DA0000126DFE7D5F800B042465B4608212046E1
:104DB000CDF800A004F06EFF099B4A460293BDF8AF
:104DC0002230082101939DF82130204600939DF860
:104DD000203004F05FFF08212046079B2F4A04F093
:104DE00059FF504604A907F0FBFB28B12C4B029059
:104DF000CDE900A35B46C8E79DF810302046013B93
:104E0000DBB2042B96BF274A1B4B52F823300821F4
:104E1000254A04F03FFF9DF811302046013BDBB2EC
:104E2000042B96BF134A144B52F8233008211F4A13
:104E300004F030FF9DF812302046013BDBB2032B1B
:104E400096BF1B4A0C4B52F823300821194A04F034
:104E500021FF9DF813300821013BDBB2032B98BFE3
:104E6000134A204694BF52F82330034B124A04F0F1
:104E700011FF8FE70CEB0108E10002087601020840
:104E8000E90002089CEB0108B5F1010823010208C2
:104E9000320102081C010208F80002084A01020857
:104EA0005C01020820EB0108670102087401020896
:104EB000FCEA0108850102089601020870B5416903
:104EC0000446867A0A4D59B1437ADB0706D42C236F
:104ED00003FB06535B6A1B689B689847002363616A
:104EE0002C20214606FB0050BDE8704008F036BB80
:104EF000040200202C21827A054B01FB02339A6ABE
:104F00001B7F801A1B3323F00303B0FBF3F07047C1
:104F10000402002038B52C24827A064B04FB0233AD
:104F20005B6AD3E901240C601568FFF7E3FF04FB1B
:104F3000005038BD040200202DE9F04F85B0054631
:104F4000684691461C4690469A46039108F0E8FC54
:104F5000DDE90067EFF3118B102383F31288BFF3B1
:104F60006F8F698B002942D02B8B8B4226D9002270
:104F70000023284602F016FD0446F8B18BF3118891
:104F8000BFF36F8F039B002B4FD032463B466846E2
:104F900008F0EAFC2C21A27A294B204601FB0233BF
:104FA0005B6A03A91B681D68DDE90023A8476061EF
:104FB00000283BD12046FFF781FF31E0698B4B1E73
:104FC0006B838BF31188BFF36F8F2B7F2A8BAC6AB7
:104FD0001B3323F00303521A02FB0344184B194AF4
:104FE000EB1A9B105343A3722B7FE372CAE78BF338
:104FF0001188BFF36F8F54EA090409D008F02EFF1F
:10500000114A124B12589A420ABF8846C846C246F5
:1050100042465346284602F0C5FC04460028B1D15A
:105020000024204605B0BDE8F08F63610023012213
:10503000636022812382039A63696282E360F0E7FE
:1050400004020020A38B2EBA0800000030070020C5
:1050500070B52C250B4C00B970BD037A4668013B36
:10506000DBB20372002BF7D1C3604360837A05FB88
:1050700003431B6A13B198473046ECE7FFF71EFF66
:10508000FAE700BF04020020F8B505460024104EE0
:10509000104F2B7853FA84F01F2812DC0123F2689A
:1050A000834033EA020203D0326933EA020208D1B4
:1050B000F360336157F830301BB107EBC002516821
:1050C00098476A780134E3B29A42E2D2F8BD00BF51
:1050D00000200244F80E0020014B23F81010704706
:1050E000C401002010B4074B024633F9100001231D
:1050F00005499340D1F880402343C1F8803010BC6B
:10510000FEF780B9C4010020002002441F2808DCFB
:10511000012204498240D1F8803023EA0203C1F819
:10512000803070470020024403292AD8DFE801F0CC
:10513000020E141F0122134B8240196821EA02015A
:105140001960596821EA02025A60704701220D4B2A
:10515000824019681143F3E701220A4B82405968E3
:1051600011435960196821EA02021A60704701234D
:1051700003FA00F0034B1A6802431A605A6810439E
:10518000586070470020024430B50A4B53F8304055
:105190008C4204D103EBC0056D68954205D034B94B
:1051A00043F8301003EBC0035A60002030BD6FF0AD
:1051B0000F00FBE7F80E00200022034B43F83020DD
:1051C00003EBC0035A607047F80E0020204B1868AC
:1051D0000B680A2B22D813B96FF085007047013B8A
:1051E000092BF9D801A151F823F000BF155201088D
:1051F0003D520108D95101084B520108D95101080B
:10520000D9510108435201081552010847520108BB
:10521000155201080F48106000207047882BFAD003
:105220008C3B1C2BD8D8012101FA03F30A490B420D
:10523000F1D113F4881FCFD04008ECE74FF40040C1
:10524000E9E70648E7E70648E5E70648E3E700BF81
:10525000B0010020001C4E0E01010011006CDC02A8
:1052600000B4C40440787D0110B56A4CE369236A38
:10527000694B1A6942F030021A615A691207FCD56B
:10528000664802F0AFF82368624A43F48023236043
:10529000236843F48033236013689C03FCD55E4B82
:1052A0005A6AD00706D45A6A42F001025A625A6A10
:1052B000D107FCD5574BD3F8F02022F0180242F06A
:1052C0001002C3F8F020D3F8F02042F00102C3F836
:1052D000F020D3F8F0209207FBD54F494A6A22F01C
:1052E00001024A621A6842F480521A60494B1A68F5
:1052F0009404FCD5DA6902F01802182A17D11A684A
:10530000900707D41A6842F001021A60414A1368F4
:105310009907FCD53F4BDA6922F00302DA61DA69BA
:1053200012F0180FFBD11A6A22F00F021A62394BE1
:105330001A6822F080721A609A6A42F003029A6236
:105340009A6A22F47C5242F4A0629A629A6A22F02B
:105350000C0242F008029A629A6A22F020029A62D3
:105360005A6B22F4FF7222F0010242F05F025A638C
:105370009A6A22F010029A625A6B22F47E4242F438
:1053800000725A639A6A42F480329A625A6B22F42B
:10539000FE0242F4A0225A639A6A42F400329A62F0
:1053A0005A6B22F0FE4242F080725A639A6A42F4CB
:1053B00080229A621A6842F080721A601A6892011A
:1053C000FCD5DA6A22F00302DA621A6B22F00302D9
:1053D0001A631A6A22F00F021A621A6A22F0700225
:1053E00042F040021A621A6A22F4E0621A621A6AF1
:1053F00022F4E0421A62DA6942F00302DA61054AF5
:10540000D36903F01803182BFAD1054B034A002087
:105410001A6010BD000C024400080244001C4E0E2D
:10542000B001002008B5074807F05DFF38B1064815
:10543000FEF78CFA0448FBF765FB002008BD6FF00F
:105440001200FBE728E001084D5401080A2838B58E
:105450000446074D04D1AB680D2128465B68984788
:10546000AB6803485B68E1B29847204638BD00BF8F
:1054700028E00108F8B50D461646002150220446E2
:1054800008F0DBFCA5F1080358425841022E18BF72
:105490000023A5F10201C9B21DBF1E461F461A46D0
:1054A0004FF0006302BF4FF4006608274FF0005230
:1054B00006294FEA001016D80E4DDFF83CE015F82B
:1054C00001C00E4D35F811505EF82110C4E903C03B
:1054D0004FF44050C4E908066761E561A1632364A5
:1054E000A2642046F8BD4FF080714FF480754FF0F4
:1054F000010CEBE78F020208D4EB0108E8EE01088B
:10550000004870479CEC01082DE9F04F06460F4615
:10551000B1B0002A00F019810029C0F21881D0F83A
:1055200004A0DAF80C108A4228BF0A461546FA177A
:10553000781942F1000281424FF000009041C0F022
:105540000681C5F30B0212B1A94200F20381D6F81D
:1055500010B0584606F0F6F85022002108A808F0CE
:105560006CFC30469AF818209AF8141006F0C1F92D
:10557000044640B1002430695C3006F05FF82046F4
:1055800031B0BDE8F08FDAF81420082A14BF0122E8
:1055900004220B92DAF81820A2F1020EDEF10002CA
:1055A00042EB0E02D2000D92DAF81420A2F10808A4
:1055B000D8F1000242EB080212010C92002DDAD061
:1055C000002CD8D1A04619E001224FF0050CCDE9FE
:1055D0001EC24FF08072B9F1020F2A92CDF88C8072
:1055E00014BF0122022248E05C4A306903A906F098
:1055F00062F904460028BED1002DBBD030469AF88F
:1056000018209AF8141006F0BAF904460028B2D10E
:10561000DAF80C20AA4246D146F29F030E90DAF83F
:1056200014203069082A0CBF1A46602208A90A9281
:10563000CDF83C8006F07FF8DAF80C203369AD1A1B
:105640007268019392F81890137D2146142203A8E2
:10565000009308F0F2FB4A4600991CA8FFF70AFFE6
:10566000009B082BB0D140F2FA52B9F1020F1E9202
:105670000BBF05240424022201222B9202221020B7
:1056800004924FF480021CA9CDE9062041F2883231
:1056900001982D94CDF8888007F039F80028A3D020
:1056A0006FF0040467E7DAF814203069082A14BFA1
:1056B0004FF480724FF480620F92DAF8182042F2B1
:1056C000DE1E931E5A425A41D202119290F89E2039
:1056D0004FF0FF38042A0CBF4FF440524FF40052F1
:1056E000B2F5405F10920CBF4FF0210C4FF0200C30
:1056F0005A460E970BF1080492F89530F3B108FA68
:1057000003F137EA010119D101219940A94215D8C5
:1057100092F89430023294420A93EDD108A906F02F
:105720000AF830469AF818209AF8141006F0E1F8B2
:1057300007F580570446A5F580553FE7DAF81410C1
:10574000082914BF63467346E4E7144617E76FF071
:10575000150414E76FF0850411E700BFE0040700AB
:105760002DE9F04F456804466B69D0F81080082B8E
:10577000BBB003D0AB69022B00F094830021E86931
:1057800026AA06F0C8FC071EC0F2EF80269B002266
:105790001979186800F06CFD071EC0F2E680824F90
:1057A000384607F0A0FD002800F07F836B68032BCC
:1057B00000F2F180BE683846336829689847814610
:1057C000002840F0E880F3682968002B00F0E380AF
:1057D000384606AA98470028C0F2DD806B68012B86
:1057E00000F2C7806B68022B07D9296833686E48BE
:1057F00010319847002840F0CE80002306991A46C1
:105800000133B1FBF3F02E698642C0F0C780C8F8BF
:105810002420EA68404692FAA2F3002AB3FA83F3FE
:1058200008BF4FF0FF33013BC8F810300023C8F821
:105830002030AB69022B01BF4FF08073C8F80C30E9
:105840004FF08053C8F82C300023C8F8343001F0F2
:10585000DFFB002840F09F80CDE90A000AA94046FE
:1058600001F04AFD0B9B40469B080AA90B9301F0EF
:1058700019FD0646002840F08E80012208F15C00E8
:10588000114607F075FE0122314608F1740007F059
:105890006FFEAB68204698473146502226A82569FE
:1058A000012608F0CAFA662341F28832284626A962
:1058B000CDE9283606F02BFF00286CD1992341F260
:1058C0008832284626A9289306F021FF002862D1B5
:1058D000042346F29969299310232B9041F28832D0
:1058E000284626A9CDF8A0902A9306F010FF00289C
:1058F00051D149F6661741F28832284626A92897E1
:1059000006F005FF002846D1082341F288322846D8
:1059100026A92B93CDF8A09006F0F9FE00283AD1E5
:1059200041F28832284626A9289706F0F0FE00901A
:10593000002830D11D4807F0C7FC324631462046CA
:1059400005F0D7FF38BB676825697B69082B2FD026
:10595000BB69B3422CD11823002120460CAA05F0C4
:10596000A7FE0746002800F0C78038463BB0BDE8D8
:10597000F08F2968B36908316BB14A4638469847B9
:1059800048B92968F36808312BB1074806AA984737
:105990000028BFF627AF6FF00407E6E7B3F5807F76
:1059A0007FF42DAF1A4632E738DF0108A0860100E8
:1059B00001222046114605F0E2FF06460028EAD102
:1059C00001220723114626A88DF848304FF0720AAD
:1059D000FFF750FD4FF440733796012641F28832AD
:1059E000284626A9CDF8A0A02C93359606F08FFE68
:1059F0000028D0D141F28832284612A906F0D8FEFC
:105A00000028C8D132463146204605F072FF0028F2
:105A1000C1D132463146204605F0B1FF814600280B
:105A2000B9D1BB693246022B14BF01230223314690
:105A300026A88DF84830FFF71DFD41F28832284630
:105A400026A9CDF8A0A0CDF8B090CDF8DC90359681
:105A500006F05DFE00289ED141F28832284612A948
:105A600006F0A6FE002896D149F6404007F02CFC2F
:105A70004FF08073EB604FF080532846EB6201F0EB
:105A8000C7FA002887D1D7F81890B9F1010F27D1AC
:105A90004A460821204605F02CFF064600287FF4E0
:105AA0007AAF0122082126A8FFF7E4FC47F28E1303
:105AB0002893042341F28832284626A92C9637934E
:105AC000CDF8D49006F023FE00287FF464AF41F2B5
:105AD0008832284612A906F0AFFE00287FF45BAF9B
:105AE000BA69022A7FF437AF0821204605F001FF8A
:105AF00000283FF430AF4EE7884B0C9A9A4240F0B2
:105B0000D7819DF836300EAA012B88BF1023164688
:105B10009EBF0133DBB2DB00D3180293029BB3427A
:105B20006BD0F279337843EA0223B3F57F4F40F02C
:105B30008C81F3787179B27930799B00090241EA5E
:105B40000241502B28BF5023014312AA204605F0E2
:105B5000AFFD002851D14FF001092569704BD4F8F1
:105B600004A0079305F1940BADF814008DF816000E
:105B7000C5F89400C5F898005A465FFA89F112A852
:105B800009F1010906F05BF9B9F1050F0BF1020B00
:105B9000F2D1129B2269C3F34143013B012B8CBF1D
:105BA0000323042382F89E30D5F8A430FF2B0DD1B7
:105BB000DAF81430042B43D0082B03D0022B41D148
:105BC000A22301E041F2ED23C5F8A430DAF8143045
:105BD000082B00F0098102234FF0000985F8A83056
:105BE000032385F89F90C5F8A030DAF81430012B14
:105BF0002AD195F89E30042B4BD022696368B2F805
:105C00009C00D968134602F1080593F8944034B11A
:105C1000009E93F895400EB1B44200D20094023336
:105C20009D42F2D10123009CA3405C1E044208BFA8
:105C30000346C2F89030B1FBF3F3C2F88C3094E61F
:105C40003823C1E70223BFE7022B14BF042302233A
:105C50000DF11C0B019319F80B20304605AB12A96E
:105C6000039206F096F800280DDB039A9DF8143095
:105C700085F8A820C5F8A0309DF815209DF81630AD
:105C8000134485F89F30019B09F101094B45E2D18E
:105C9000AFE795F8A0306B2B35D02ED8032B34D03E
:105CA0003B2B08BF3C23C5F8A03095F8A430322B1D
:105CB0002FD0382B2FD0022B08BF1223C5F8A430C9
:105CC000DAF81430042B40F08F80304608AA12A96D
:105CD00006F0C8F80028A2BF9DF82030C3F34203A5
:105CE00085F8A930236993F8A930062B85D8DFE819
:105CF00003F07B8A198F8A8A8A00BB2B07D0EB2B93
:105D000008BFEC23CFE76C23CDE71323CBE7BC23FD
:105D1000C9E73423D2E73E23D0E700BF53464450BF
:105D2000030604074FF040094FF0010A5146204690
:105D30000DF1130205F02DFD0028FFF65EAF9DF872
:105D4000133019EA030301934ED101222046114674
:105D500005F015FE0028FFF650AF9DF813B023693B
:105D60005022019949EA0B0B26A803938DF813B032
:105D700008F063F84FF0807201233492019ACDE964
:105D800028330992039A9A4592F8A92043D19A425E
:105D90008DF824B053D1022120460DF1250205F0E3
:105DA000F8FC0028FFF629AF022309AA204626A9FD
:105DB00005F046FC0028FFF620AF012220461146E0
:105DC00005F097FD0028FFF618AF514620460DF16B
:105DD000130205F0DEFC0028FFF60FAF9DF813302C
:105DE00019EA030F3FF409AFF3780A2B89BF1C9B14
:105DF0004FF48073C3F30312012388BF9340A5F8C7
:105E00009C3008368AE64FF002094FF0020A8DE70F
:105E10004FF08009F9E73121012A28918DF825B04A
:105E200002D0043A012A0DD80121204609AA05F022
:105E3000B0FC0028FFF6E1AE01232893B4E75346F7
:105E400009AAB3E70DF12502B0E74FF68472934239
:105E5000D7D198F89E30042BD3D1F3787179B279E9
:105E600030799B00090241EA0241082B28BF082330
:105E7000014326AA204605F01BFC00287FF4BDAE96
:105E800043460DF19B0108F1080511F8012F02337B
